:020000040200F8
:10200000000200204990000291900002939000028B
:102010009590000297900002999000020000000045
:102020000000000000000000000000009B90000283
:102030009D900002000000009F900002A19000020D
:10204000A3900002A3900002A3900002A3900002BC
:10205000A3900002A3900002A3900002A3900002AC
:10206000A3900002A3900002A3900002A39000029C
:10207000A3900002A3900002A3900002A39000028C
:10208000A3900002A3900002A3900002A39000027C
:10209000A3900002A3900002A3900002A39000026C
:1020A000A3900002A3900002A3900002A39000025C
:1020B000A3900002A3900002A3900002A39000024C
:1020C000A3900002A3900002A39000021400042E2B
:1020D00080810002FFFFFFFFFFFFFFFF0200010002
:1020E00000810002FFFFFFFFFFFFFFFFFFFFFFFF79
:1020F000FFFFFFFFFFFFFFFFFFFFFFFFFFFFFFFFF0
:1021000000000000000000000000000000000000CF
:102110000000000000000000000000001194000218
:1021200000000000000000000000000000000000AF
:1021300000000000000000002390000200000000EA
:10214000000000000000000000000000000000008F
:10215000000000000000000000000000000000007F
:10216000000000000000000000000000000000006F
:10217000000000000000000000000000000000005F
:10218000000000008981000201480068004700004B
:1021900004E00002FFFFFFFFFFFFFFFFFFFFFFFF65
:1021A000FFFFFFFFFFFFFFFFFFFFFFFFFFFFFFFF3F
:1021B000FFFFFFFFFFFFFFFFFFFFFFFFFFFFFFFF2F
:1021C000FFFFFFFFFFFFFFFFFFFFFFFFFFFFFFFF1F
:1021D000FFFFFFFFFFFFFFFFFFFFFFFFFFFFFFFF0F
:1030000000200002DFF80CD000F058F8004800471C
:10301000419300020002002010B545F6B130004790
:1030200000BF00B5DFF818C02DE9FF1F074681B0CB
:103030001D460E460348804701B400F0C7FA01BDA3
:103040003990000249FD01001648016841F0020173
:1030500001601548016841F480610160134B012152
:10306000586DC0F303305A6DC2F303329042F5D16C
:10307000491C0329F7DB0228F0DB0D4B18680028F8
:10308000ECD00C4B186840F4803018600A480047B8
:10309000FEE7FEE7FEE7FEE7FEE7FEE7FEE7FEE708
:1030A000FEE7FEE7080000401C0000400000104062
:1030B0000000114044000040BD9000021CB50948CA
:1030C0000090094801900546009C06E0E06840F049
:1030D000010394E8070098471034AC42F6D3FFF799
:1030E00095FF000048970002789700022DE9F05FF5
:1030F0000546002092469B46884606468146402467
:103100001BE0284641464746224600F02FF853462A
:103110005A46C01A914110D311461846224600F073
:1031200016F82D1A67EB01084F46224601200021B0
:1031300000F00DF817EB00094E41201EA4F1010428
:10314000DFDC484631462A464346BDE8F09F202A48
:1031500004DB203A00FA02F1002070479140C2F1EE
:10316000200320FA03F3194390407047202A04DB20
:10317000203A21FA02F00021704721FA02F3D040F0
:10318000C2F120029140084319467047F0B581B062
:1031900042F21006C4F210061446326800F03F05F1
:1031A000D2050CD445F2A060C2F2000000684DF6D2
:1031B0008362C4F21B32A0FB0202900C00E01820D4
:1031C000B0FBF5F0022802D2012001B0F0BD30685A
:1031D000CFB2C00505D445F2A060C2F2000000687D
:1031E00003E043F20060C0F26E1044F24022A0FB04
:1031F0000701C0F20F020023FFF778FF2A460023E1
:10320000FFF774FFA0F5E6718D2902D24FF460003C
:1032100027E0A0F5BE718D2902D24FF4400020E0D6
:10322000A0F596718D2902D24FF4200019E0A0F18B
:10323000DC018D2902D24FF4000012E0A0F1A001C0
:10324000792902D24FF4C0000BE0A0F16401652996
:1032500002D24FF4800004E03C383C2811D84FF4EF
:103260000010FA01B16942EA450204F03F0342EA64
:10327000C3326FF3570110430843B061002001B01F
:10328000F0BD022001B0F0BD42F22802C4F21002EB
:1032900011681368002823F0010318BF013313607D
:1032A00009D011F0010018BF70474020C4F200009F
:1032B00001684900FCD5704742F21801C4F21001C0
:1032C00078B10A6800F00F0322F0706242EA0362EC
:1032D0000A600A6842F000520A604A6842F480427A
:1032E00002E04A6822F480424A600A68002822F01C
:1032F000004218BF02F100420A60704742F2180112
:10330000C4F2100178B10A6800F00F0322F47002D1
:1033100042EA03520A600A6842F080520A604A6830
:1033200042F4005202E04A6822F400524A600A68FD
:10333000002822F0804218BF02F180420A607047E4
:1033400080B5052050210122FFF720FF0120FFF763
:103350009BFF0520FFF7B0FF0320FFF7CFFF0520FD
:10336000012100F00EF80420002100F00AF80720E7
:1033700000F0A0F8002080BD48F2CC00C0F2002090
:10338000704745F2296CC0F2020C60474AF2153CC6
:10339000C0F2020C60474EF2416CC0F2010C604773
:1033A0004DF26D2CC0F2010C604741F6B55CC0F2E5
:1033B000020C604744F26D0CC0F2000C60474EF600
:1033C000C94CC0F2000C604745F6B91CC0F2020CB3
:1033D000604745F6852CC0F2020C604745F6992CF3
:1033E000C0F2020C604745F6F92CC0F2020C6047AF
:1033F00002E008C8121F08C1002AFAD170477047BE
:10340000002001E001C1121F002AFBD1704700001B
:1034100010B5FFF7BBFF022809D10748016841F04A
:1034200003010160016D48F2445211430165BDE89A
:103430001040FFF7F1BD00000000114070B51D46BF
:1034400016460C24002000F0B7F8FFF7A4FF50B197
:10345000FFF7A6FFFFF79FFF20B1012000F0ACF8B7
:10346000002070BD00242346324629462520FFF760
:103470009CFFF5E70B480168C90712D14FEA01022A
:1034800000EB81039A60491C0829F9DB0649416079
:103490004DF6616181610549C16105490162032100
:1034A00001607047002000E0805600205950020063
:1034B00075F002001F494A691F4B1A4042EA00702A
:1034C00040F4822048616FEA9040800701D188046F
:1034D000C862086840F0805008601848426D920742
:1034E000FCD417484068C00105D5C86A45F24D11A3
:1034F000C0F30070884700201249024601EB8003A8
:103500009A60401C0828F9DB0F48486042F201022B
:103510000A6203220A600D498161BFF34F8F0C4894
:1035200001680C4A01F4E06111430160BFF34F8F61
:10353000FEE70000002010400000F08F0000104067
:1035400000001540002000E080560020000F1240CF
:103550000CED00E00400FA0570B5144606460D4671
:1035600010222046FFF726FF224629463046BDE8B6
:103570007040FFF724BF0000024890F87400C0F3C9
:10358000400070470056002070B504460078094D91
:103590000E4628B995F87400C00701D0FFF76AFFFE
:1035A0002A6F22B131462046BDE870401047002006
:1035B00070BD000000560020034911F8742F60F31D
:1035C00041020A70704700000056002010B5FFF756
:1035D000D3FF00280ED0FFF7DEFE00280AD1FFF748
:1035E000EBFF00230521BDE810404FF48072252039
:1035F000FFF7DBBE10BD7047074810B54068C0013B
:1036000006D50648C06A45F24D11C0F300708847E0
:10361000BDE81040FFF7D8BE000015400020104064
:1036200070470000094810F8741F41F00101017053
:1036300007490220086005484FF2A311803001615C
:103640000449416104498161FFF714BF005600201D
:10365000002000E0801E00F03D940002022802D10C
:10366000024B19670249FFF7B4BE00000056002064
:103670008995000210B5014670220648FFF79AFEB0
:1036800004480169016704490161BDE81040FFF782
:10369000A5BE0000005600208995000210B5044622
:1036A00007484068C00106D50648C06A45F24D117A
:1036B000C0F3007088472046BDE81040FFF793BE76
:1036C0000000154000201040000000000000000035
:1036D00000000000000000000000000000000000EA
:1036E0000000000011940002000000000000000033
:1036F00000000000000000000000000000000000CA
:103700002390000200000000000000000000000004
:1037100000000000000000000000000000000000A9
:103720000000000000000000000000000000000099
:103730000000000000000000000000000000000089
:10374000000000000000000080970002E05500200B
:1037500020000000F093000280970002000000208B
:103760000002000000940002A09700020056002012
:10377000A400000000940002C8FBFF7F01000000CD
:103780000100000000000000000000000000000038
:103790000000000000000000000000000000000029
:00000001FF
